{
  "_format": "hh-sol-artifact-1",
  "contractName": "CertificateVerification",
  "sourceName": "contracts/CertificateVerification.sol",
  "abi": [
    {
      "inputs": [],
      "stateMutability": "nonpayable",
      "type": "constructor"
    },
    {
      "anonymous": false,
      "inputs": [
        {
          "indexed": true,
          "internalType": "uint256",
          "name": "certificateId",
          "type": "uint256"
        },
        {
          "indexed": true,
          "internalType": "address",
          "name": "issuer",
          "type": "address"
        },
        {
          "indexed": false,
          "internalType": "string",
          "name": "studentEmail",
          "type": "string"
        },
        {
          "indexed": false,
          "internalType": "string",
          "name": "certificateType",
          "type": "string"
        },
        {
          "indexed": false,
          "internalType": "string",
          "name": "ipfsHash",
          "type": "string"
        }
      ],
      "name": "CertificateIssued",
      "type": "event"
    },
    {
      "anonymous": false,
      "inputs": [
        {
          "indexed": true,
          "internalType": "uint256",
          "name": "certificateId",
          "type": "uint256"
        },
        {
          "indexed": true,
          "internalType": "address",
          "name": "revoker",
          "type": "address"
        },
        {
          "indexed": false,
          "internalType": "string",
          "name": "reason",
          "type": "string"
        }
      ],
      "name": "CertificateRevoked",
      "type": "event"
    },
    {
      "anonymous": false,
      "inputs": [
        {
          "indexed": true,
          "internalType": "uint256",
          "name": "certificateId",
          "type": "uint256"
        },
        {
          "indexed": true,
          "internalType": "address",
          "name": "verifier",
          "type": "address"
        },
        {
          "indexed": false,
          "internalType": "bool",
          "name": "isValid",
          "type": "bool"
        }
      ],
      "name": "CertificateVerified",
      "type": "event"
    },
    {
      "anonymous": false,
      "inputs": [
        {
          "indexed": true,
          "internalType": "address",
          "name": "issuer",
          "type": "address"
        },
        {
          "indexed": true,
          "internalType": "address",
          "name": "admin",
          "type": "address"
        }
      ],
      "name": "IssuerAdded",
      "type": "event"
    },
    {
      "anonymous": false,
      "inputs": [
        {
          "indexed": true,
          "internalType": "address",
          "name": "issuer",
          "type": "address"
        },
        {
          "indexed": true,
          "internalType": "address",
          "name": "admin",
          "type": "address"
        }
      ],
      "name": "IssuerRemoved",
      "type": "event"
    },
    {
      "anonymous": false,
      "inputs": [
        {
          "indexed": false,
          "internalType": "address",
          "name": "account",
          "type": "address"
        }
      ],
      "name": "Paused",
      "type": "event"
    },
    {
      "anonymous": false,
      "inputs": [
        {
          "indexed": true,
          "internalType": "bytes32",
          "name": "role",
          "type": "bytes32"
        },
        {
          "indexed": true,
          "internalType": "bytes32",
          "name": "previousAdminRole",
          "type": "bytes32"
        },
        {
          "indexed": true,
          "internalType": "bytes32",
          "name": "newAdminRole",
          "type": "bytes32"
        }
      ],
      "name": "RoleAdminChanged",
      "type": "event"
    },
    {
      "anonymous": false,
      "inputs": [
        {
          "indexed": true,
          "internalType": "bytes32",
          "name": "role",
          "type": "bytes32"
        },
        {
          "indexed": true,
          "internalType": "address",
          "name": "account",
          "type": "address"
        },
        {
          "indexed": true,
          "internalType": "address",
          "name": "sender",
          "type": "address"
        }
      ],
      "name": "RoleGranted",
      "type": "event"
    },
    {
      "anonymous": false,
      "inputs": [
        {
          "indexed": true,
          "internalType": "bytes32",
          "name": "role",
          "type": "bytes32"
        },
        {
          "indexed": true,
          "internalType": "address",
          "name": "account",
          "type": "address"
        },
        {
          "indexed": true,
          "internalType": "address",
          "name": "sender",
          "type": "address"
        }
      ],
      "name": "RoleRevoked",
      "type": "event"
    },
    {
      "anonymous": false,
      "inputs": [
        {
          "indexed": false,
          "internalType": "address",
          "name": "account",
          "type": "address"
        }
      ],
      "name": "Unpaused",
      "type": "event"
    },
    {
      "inputs": [],
      "name": "ADMIN_ROLE",
      "outputs": [
        {
          "internalType": "bytes32",
          "name": "",
          "type": "bytes32"
        }
      ],
      "stateMutability": "view",
      "type": "function"
    },
    {
      "inputs": [],
      "name": "DEFAULT_ADMIN_ROLE",
      "outputs": [
        {
          "internalType": "bytes32",
          "name": "",
          "type": "bytes32"
        }
      ],
      "stateMutability": "view",
      "type": "function"
    },
    {
      "inputs": [],
      "name": "ISSUER_ROLE",
      "outputs": [
        {
          "internalType": "bytes32",
          "name": "",
          "type": "bytes32"
        }
      ],
      "stateMutability": "view",
      "type": "function"
    },
    {
      "inputs": [],
      "name": "VERIFIER_ROLE",
      "outputs": [
        {
          "internalType": "bytes32",
          "name": "",
          "type": "bytes32"
        }
      ],
      "stateMutability": "view",
      "type": "function"
    },
    {
      "inputs": [
        {
          "internalType": "address",
          "name": "issuer",
          "type": "address"
        }
      ],
      "name": "addIssuer",
      "outputs": [],
      "stateMutability": "nonpayable",
      "type": "function"
    },
    {
      "inputs": [
        {
          "internalType": "address",
          "name": "verifier",
          "type": "address"
        }
      ],
      "name": "addVerifier",
      "outputs": [],
      "stateMutability": "nonpayable",
      "type": "function"
    },
    {
      "inputs": [
        {
          "internalType": "uint256[]",
          "name": "certificateIds",
          "type": "uint256[]"
        }
      ],
      "name": "batchVerifyCertificates",
      "outputs": [
        {
          "internalType": "bool[]",
          "name": "",
          "type": "bool[]"
        }
      ],
      "stateMutability": "nonpayable",
      "type": "function"
    },
    {
      "inputs": [
        {
          "internalType": "uint256",
          "name": "certificateId",
          "type": "uint256"
        }
      ],
      "name": "getCertificateById",
      "outputs": [
        {
          "components": [
            {
              "internalType": "uint256",
              "name": "id",
              "type": "uint256"
            },
            {
              "internalType": "address",
              "name": "issuer",
              "type": "address"
            },
            {
              "internalType": "string",
              "name": "studentEmail",
              "type": "string"
            },
            {
              "internalType": "string",
              "name": "certificateType",
              "type": "string"
            },
            {
              "internalType": "string",
              "name": "ipfsHash",
              "type": "string"
            },
            {
              "internalType": "uint256",
              "name": "issueDate",
              "type": "uint256"
            },
            {
              "internalType": "uint256",
              "name": "expiryDate",
              "type": "uint256"
            },
            {
              "internalType": "bool",
              "name": "isValid",
              "type": "bool"
            },
            {
              "internalType": "bool",
              "name": "isRevoked",
              "type": "bool"
            },
            {
              "internalType": "string",
              "name": "revocationReason",
              "type": "string"
            },
            {
              "internalType": "uint256",
              "name": "verificationCount",
              "type": "uint256"
            }
          ],
          "internalType": "struct CertificateVerification.Certificate",
          "name": "",
          "type": "tuple"
        }
      ],
      "stateMutability": "view",
      "type": "function"
    },
    {
      "inputs": [],
      "name": "getCertificateCount",
      "outputs": [
        {
          "internalType": "uint256",
          "name": "",
          "type": "uint256"
        }
      ],
      "stateMutability": "view",
      "type": "function"
    },
    {
      "inputs": [
        {
          "internalType": "uint256",
          "name": "certificateId",
          "type": "uint256"
        }
      ],
      "name": "getCertificateVerifiers",
      "outputs": [
        {
          "internalType": "address[]",
          "name": "",
          "type": "address[]"
        }
      ],
      "stateMutability": "view",
      "type": "function"
    },
    {
      "inputs": [
        {
          "internalType": "address",
          "name": "issuer",
          "type": "address"
        }
      ],
      "name": "getCertificatesByIssuer",
      "outputs": [
        {
          "internalType": "uint256[]",
          "name": "",
          "type": "uint256[]"
        }
      ],
      "stateMutability": "view",
      "type": "function"
    },
    {
      "inputs": [
        {
          "internalType": "string",
          "name": "studentEmail",
          "type": "string"
        }
      ],
      "name": "getCertificatesByStudent",
      "outputs": [
        {
          "internalType": "uint256[]",
          "name": "",
          "type": "uint256[]"
        }
      ],
      "stateMutability": "view",
      "type": "function"
    },
    {
      "inputs": [],
      "name": "getContractStats",
      "outputs": [
        {
          "internalType": "uint256",
          "name": "totalCertificates",
          "type": "uint256"
        },
        {
          "internalType": "uint256",
          "name": "validCertificates",
          "type": "uint256"
        },
        {
          "internalType": "uint256",
          "name": "revokedCertificates",
          "type": "uint256"
        },
        {
          "internalType": "uint256",
          "name": "totalVerifications",
          "type": "uint256"
        }
      ],
      "stateMutability": "view",
      "type": "function"
    },
    {
      "inputs": [
        {
          "internalType": "bytes32",
          "name": "role",
          "type": "bytes32"
        }
      ],
      "name": "getRoleAdmin",
      "outputs": [
        {
          "internalType": "bytes32",
          "name": "",
          "type": "bytes32"
        }
      ],
      "stateMutability": "view",
      "type": "function"
    },
    {
      "inputs": [
        {
          "internalType": "bytes32",
          "name": "role",
          "type": "bytes32"
        },
        {
          "internalType": "address",
          "name": "account",
          "type": "address"
        }
      ],
      "name": "grantRole",
      "outputs": [],
      "stateMutability": "nonpayable",
      "type": "function"
    },
    {
      "inputs": [
        {
          "internalType": "bytes32",
          "name": "role",
          "type": "bytes32"
        },
        {
          "internalType": "address",
          "name": "account",
          "type": "address"
        }
      ],
      "name": "hasRole",
      "outputs": [
        {
          "internalType": "bool",
          "name": "",
          "type": "bool"
        }
      ],
      "stateMutability": "view",
      "type": "function"
    },
    {
      "inputs": [
        {
          "internalType": "uint256",
          "name": "certificateId",
          "type": "uint256"
        }
      ],
      "name": "isCertificateExpired",
      "outputs": [
        {
          "internalType": "bool",
          "name": "",
          "type": "bool"
        }
      ],
      "stateMutability": "view",
      "type": "function"
    },
    {
      "inputs": [
        {
          "internalType": "string",
          "name": "studentEmail",
          "type": "string"
        },
        {
          "internalType": "string",
          "name": "certificateType",
          "type": "string"
        },
        {
          "internalType": "string",
          "name": "ipfsHash",
          "type": "string"
        },
        {
          "internalType": "uint256",
          "name": "issueDate",
          "type": "uint256"
        },
        {
          "internalType": "uint256",
          "name": "expiryDate",
          "type": "uint256"
        }
      ],
      "name": "issueCertificate",
      "outputs": [
        {
          "internalType": "uint256",
          "name": "",
          "type": "uint256"
        }
      ],
      "stateMutability": "nonpayable",
      "type": "function"
    },
    {
      "inputs": [],
      "name": "pause",
      "outputs": [],
      "stateMutability": "nonpayable",
      "type": "function"
    },
    {
      "inputs": [],
      "name": "paused",
      "outputs": [
        {
          "internalType": "bool",
          "name": "",
          "type": "bool"
        }
      ],
      "stateMutability": "view",
      "type": "function"
    },
    {
      "inputs": [
        {
          "internalType": "address",
          "name": "issuer",
          "type": "address"
        }
      ],
      "name": "removeIssuer",
      "outputs": [],
      "stateMutability": "nonpayable",
      "type": "function"
    },
    {
      "inputs": [
        {
          "internalType": "address",
          "name": "verifier",
          "type": "address"
        }
      ],
      "name": "removeVerifier",
      "outputs": [],
      "stateMutability": "nonpayable",
      "type": "function"
    },
    {
      "inputs": [
        {
          "internalType": "bytes32",
          "name": "role",
          "type": "bytes32"
        },
        {
          "internalType": "address",
          "name": "account",
          "type": "address"
        }
      ],
      "name": "renounceRole",
      "outputs": [],
      "stateMutability": "nonpayable",
      "type": "function"
    },
    {
      "inputs": [
        {
          "internalType": "uint256",
          "name": "certificateId",
          "type": "uint256"
        },
        {
          "internalType": "string",
          "name": "reason",
          "type": "string"
        }
      ],
      "name": "revokeCertificate",
      "outputs": [],
      "stateMutability": "nonpayable",
      "type": "function"
    },
    {
      "inputs": [
        {
          "internalType": "bytes32",
          "name": "role",
          "type": "bytes32"
        },
        {
          "internalType": "address",
          "name": "account",
          "type": "address"
        }
      ],
      "name": "revokeRole",
      "outputs": [],
      "stateMutability": "nonpayable",
      "type": "function"
    },
    {
      "inputs": [
        {
          "internalType": "bytes4",
          "name": "interfaceId",
          "type": "bytes4"
        }
      ],
      "name": "supportsInterface",
      "outputs": [
        {
          "internalType": "bool",
          "name": "",
          "type": "bool"
        }
      ],
      "stateMutability": "view",
      "type": "function"
    },
    {
      "inputs": [],
      "name": "unpause",
      "outputs": [],
      "stateMutability": "nonpayable",
      "type": "function"
    },
    {
      "inputs": [
        {
          "internalType": "uint256",
          "name": "certificateId",
          "type": "uint256"
        }
      ],
      "name": "verifyCertificate",
      "outputs": [
        {
          "internalType": "bool",
          "name": "",
          "type": "bool"
        }
      ],
      "stateMutability": "nonpayable",
      "type": "function"
    }
  ],
  "bytecode": "0x60806040523480156200001157600080fd5b506001805460ff191681556002556200002c600033620000b6565b620000587fa49807205ce4d355092ef5a8a18f56e8913cf4a201fbe287825b095693c2177533620000b6565b620000847f114e74f6ea3bd819998f78687bfcb11b140da08e9b7d222fa9c1f1ba1f2aa12233620000b6565b620000b07f0ce23c3e399818cfee81a7ab0880f714e53d7672b08df0fa62f2843416e1ea0933620000b6565b62000157565b6000828152602081815260408083206001600160a01b038516845290915290205460ff1662000153576000828152602081815260408083206001600160a01b03851684529091529020805460ff19166001179055620001123390565b6001600160a01b0316816001600160a01b0316837f2f8788117e7eff1d82e926ec794901d17c78024a50270940304540a733656f0d60405160405180910390a45b5050565b61296680620001676000396000f3fe608060405234801561001057600080fd5b50600436106101c45760003560e01c80638beac39e116100f9578063ca2dfd0a11610097578063e7705db611610071578063e7705db6146103d2578063fd5d78cb146103f9578063fdb5f9df14610419578063feef67141461042c57600080fd5b8063ca2dfd0a14610384578063d547741f14610397578063dfe6b5d6146103aa57600080fd5b80639d735caf116100d35780639d735caf14610329578063a217fddf14610349578063b13736e614610351578063b1466d1d1461037157600080fd5b80638beac39e146102e35780639000b3d61461030357806391d148541461031657600080fd5b80633f4ba83a1161016657806375b238fc1161014057806375b238fc146102a957806382aefa24146102be5780638456cb59146102d35780638809f727146102db57600080fd5b80633f4ba83a1461028357806347bc70931461028b5780635c975abb1461029e57600080fd5b8063248a9ca3116101a2578063248a9ca3146102195780632f2ff15d1461024a578063327eb1571461025d57806336568abe1461027057600080fd5b806301ffc9a7146101c95780631692a942146101f157806320694db014610204575b600080fd5b6101dc6101d73660046120f5565b61043f565b60405190151581526020015b60405180910390f35b6101dc6101ff36600461211f565b610476565b61021761021236600461214f565b6105a3565b005b61023c61022736600461211f565b60009081526020819052604090206001015490565b6040519081526020016101e8565b61021761025836600461216a565b61065c565b61023c61026b36600461224d565b610686565b61021761027e36600461216a565b61099f565b610217610a1d565b61021761029936600461214f565b610a40565b60015460ff166101dc565b61023c60008051602061291183398151915281565b61023c6000805160206128f183398151915281565b610217610af9565b61023c610b19565b6102f66102f136600461211f565b610b29565b6040516101e891906122e7565b61021761031136600461214f565b610bc6565b6101dc61032436600461216a565b610c59565b61033c61033736600461211f565b610c82565b6040516101e89190612384565b61023c600081565b61036461035f366004612476565b610fe6565b6040516101e8919061251c565b61021761037f366004612556565b611272565b61021761039236600461214f565b611481565b6102176103a536600461216a565b611514565b6103b2611539565b6040805194855260208501939093529183015260608201526080016101e8565b61023c7f0ce23c3e399818cfee81a7ab0880f714e53d7672b08df0fa62f2843416e1ea0981565b61040c61040736600461259d565b611893565b6040516101e891906125d2565b6101dc61042736600461211f565b611903565b61040c61043a36600461214f565b611c15565b60006001600160e01b03198216637965db0b60e01b148061047057506301ffc9a760e01b6001600160e01b03198316145b92915050565b600081815260046020526040812054829082036104ae5760405162461bcd60e51b81526004016104a59061260a565b60405180910390fd5b6104b6611c7f565b6104be611cc7565b600083815260046020526040812060098101805491926104dd83612657565b90915550506000848152600760208181526040832080546001810182559084529083200180546001600160a01b0319163317905582015460ff16801561052d57506007820154610100900460ff16155b80156105485750600682015415806105485750428260060154115b9050336001600160a01b0316857fb68bf4c2de15f58e0eefd6ec24236dd88ec684002886f7ee1652a7f1f74b485083604051610588911515815260200190565b60405180910390a392505061059d6001600255565b50919050565b6000805160206129118339815191526105bb81611d1e565b6001600160a01b03821661060a5760405162461bcd60e51b8152602060048201526016602482015275496e76616c696420697373756572206164647265737360501b60448201526064016104a5565b6106226000805160206128f183398151915283611d28565b60405133906001600160a01b038416907f81f5a5da0823b41cbf403c631b7efa6c2ec9a7742d7c9cf86de6300fbaf3e00e90600090a35050565b60008281526020819052604090206001015461067781611d1e565b6106818383611d28565b505050565b60006000805160206128f18339815191526106a081611d1e565b6106a8611c7f565b6106b0611cc7565b60008751116107015760405162461bcd60e51b815260206004820152601d60248201527f53747564656e7420656d61696c2063616e6e6f7420626520656d70747900000060448201526064016104a5565b60008651116107525760405162461bcd60e51b815260206004820181905260248201527f436572746966696361746520747970652063616e6e6f7420626520656d70747960448201526064016104a5565b60008551116107a35760405162461bcd60e51b815260206004820152601960248201527f4950465320686173682063616e6e6f7420626520656d7074790000000000000060448201526064016104a5565b428411156107fe5760405162461bcd60e51b815260206004820152602260248201527f497373756520646174652063616e6e6f7420626520696e207468652066757475604482015261726560f01b60648201526084016104a5565b82158061080a57508383115b6108625760405162461bcd60e51b8152602060048201526024808201527f4578706972792064617465206d757374206265206166746572206973737565206044820152636461746560e01b60648201526084016104a5565b610870600380546001019055565b600061087b60035490565b60008181526004602052604090208181556001810180546001600160a01b03191633179055909150600281016108b18a826126f2565b50600381016108c089826126f2565b50600481016108cf88826126f2565b506005808201879055600680830187905560078301805461ffff1916600190811790915560006009850181905533815260209384526040808220805493840181558252939020018490559051610926908b906127b2565b90815260405190819003602090810182208054600181018255600091825291902001839055339083907f5e6f8d0e0c69367b877ce8a6320e7e57e120bebb1ccf1b4b5a7443ee2e0559b490610980908d908d908d906127ce565b60405180910390a35091506109956001600255565b5095945050505050565b6001600160a01b0381163314610a0f5760405162461bcd60e51b815260206004820152602f60248201527f416363657373436f6e74726f6c3a2063616e206f6e6c792072656e6f756e636560448201526e103937b632b9903337b91039b2b63360891b60648201526084016104a5565b610a198282611dac565b5050565b600080516020612911833981519152610a3581611d1e565b610a3d611e11565b50565b600080516020612911833981519152610a5881611d1e565b6001600160a01b038216610aa75760405162461bcd60e51b8152602060048201526016602482015275496e76616c696420697373756572206164647265737360501b60448201526064016104a5565b610abf6000805160206128f183398151915283611dac565b60405133906001600160a01b038416907f8e3ebfd0cec02d186a926ba255288096c940460c4ce14f63974995c0d394b9b490600090a35050565b600080516020612911833981519152610b1181611d1e565b610a3d611e63565b6000610b2460035490565b905090565b60008181526004602052604081205460609183919003610b5b5760405162461bcd60e51b81526004016104a59061260a565b60008381526007602090815260409182902080548351818402810184019094528084529091830182828015610bb957602002820191906000526020600020905b81546001600160a01b03168152600190910190602001808311610b9b575b5050505050915050919050565b600080516020612911833981519152610bde81611d1e565b6001600160a01b038216610c2f5760405162461bcd60e51b8152602060048201526018602482015277496e76616c6964207665726966696572206164647265737360401b60448201526064016104a5565b610a197f0ce23c3e399818cfee81a7ab0880f714e53d7672b08df0fa62f2843416e1ea0983611d28565b6000918252602082815260408084206001600160a01b0393909316845291905290205460ff1690565b610cec6040518061016001604052806000815260200160006001600160a01b03168152602001606081526020016060815260200160608152602001600081526020016000815260200160001515815260200160001515815260200160608152602001600081525090565b600082815260046020526040812054839103610d1a5760405162461bcd60e51b81526004016104a59061260a565b6000838152600460209081526040918290208251610160810184528154815260018201546001600160a01b0316928101929092526002810180549293919291840191610d6590612670565b80601f0160208091040260200160405190810160405280929190818152602001828054610d9190612670565b8015610dde5780601f10610db357610100808354040283529160200191610dde565b820191906000526020600020905b815481529060010190602001808311610dc157829003601f168201915b50505050508152602001600382018054610df790612670565b80601f0160208091040260200160405190810160405280929190818152602001828054610e2390612670565b8015610e705780601f10610e4557610100808354040283529160200191610e70565b820191906000526020600020905b815481529060010190602001808311610e5357829003601f168201915b50505050508152602001600482018054610e8990612670565b80601f0160208091040260200160405190810160405280929190818152602001828054610eb590612670565b8015610f025780601f10610ed757610100808354040283529160200191610f02565b820191906000526020600020905b815481529060010190602001808311610ee557829003601f168201915b50505091835250506005820154602082015260068201546040820152600782015460ff80821615156060840152610100909104161515608082015260088201805460a090920191610f5290612670565b80601f0160208091040260200160405190810160405280929190818152602001828054610f7e90612670565b8015610fcb5780601f10610fa057610100808354040283529160200191610fcb565b820191906000526020600020905b815481529060010190602001808311610fae57829003601f168201915b50505050508152602001600982015481525050915050919050565b6060610ff0611c7f565b610ff8611cc7565b60008251116110495760405162461bcd60e51b815260206004820152601960248201527f4e6f2063657274696669636174657320746f207665726966790000000000000060448201526064016104a5565b6032825111156110ab5760405162461bcd60e51b815260206004820152602760248201527f546f6f206d616e792063657274696669636174657320746f20766572696679206044820152666174206f6e636560c81b60648201526084016104a5565b6000825167ffffffffffffffff8111156110c7576110c7612196565b6040519080825280602002602001820160405280156110f0578160200160208202803683370190505b50905060005b835181101561126057600084828151811061111357611113612811565b60200260200101519050600460008281526020019081526020016000206000015460000361116557600083838151811061114f5761114f612811565b911515602092830291909101909101525061124e565b6000818152600460205260408120600981018054919261118483612657565b90915550506000828152600760208181526040832080546001810182559084529083200180546001600160a01b0319163317905582015460ff1680156111d457506007820154610100900460ff16155b80156111ef5750600682015415806111ef5750428260060154115b90508085858151811061120457611204612811565b9115156020928302919091018201526040518215158152339185917fb68bf4c2de15f58e0eefd6ec24236dd88ec684002886f7ee1652a7f1f74b4850910160405180910390a35050505b8061125881612657565b9150506110f6565b50905061126d6001600255565b919050565b6000828152600460205260408120548391036112a05760405162461bcd60e51b81526004016104a59061260a565b60008381526004602052604090206001015483906001600160a01b03163314806112dd57506112dd60008051602061291183398151915233610c59565b61133b5760405162461bcd60e51b815260206004820152602960248201527f4e6f7420617574686f72697a656420746f206d6f64696679207468697320636560448201526872746966696361746560b81b60648201526084016104a5565b611343611c7f565b61134b611cc7565b60008351116113a65760405162461bcd60e51b815260206004820152602160248201527f5265766f636174696f6e20726561736f6e2063616e6e6f7420626520656d70746044820152607960f81b60648201526084016104a5565b60008481526004602052604090206007810154610100900460ff161561140e5760405162461bcd60e51b815260206004820152601e60248201527f436572746966696361746520697320616c7265616479207265766f6b6564000060448201526064016104a5565b60078101805461ffff19166101001790556008810161142d85826126f2565b50336001600160a01b0316857fe30209e229ea01f995092aa4cd5d70b4cd972c12645ab69fa4884bd9882f778f866040516114689190612827565b60405180910390a35061147b6001600255565b50505050565b60008051602061291183398151915261149981611d1e565b6001600160a01b0382166114ea5760405162461bcd60e51b8152602060048201526018602482015277496e76616c6964207665726966696572206164647265737360401b60448201526064016104a5565b610a197f0ce23c3e399818cfee81a7ab0880f714e53d7672b08df0fa62f2843416e1ea0983611dac565b60008281526020819052604090206001015461152f81611d1e565b6106818383611dac565b60008060008061154860035490565b935060015b84811161188c5760008181526004602090815260408083208151610160810183528154815260018201546001600160a01b031693810193909352600281018054919284019161159b90612670565b80601f01602080910402602001604051908101604052809291908181526020018280546115c790612670565b80156116145780601f106115e957610100808354040283529160200191611614565b820191906000526020600020905b8154815290600101906020018083116115f757829003601f168201915b5050505050815260200160038201805461162d90612670565b80601f016020809104026020016040519081016040528092919081815260200182805461165990612670565b80156116a65780601f1061167b576101008083540402835291602001916116a6565b820191906000526020600020905b81548152906001019060200180831161168957829003601f168201915b505050505081526020016004820180546116bf90612670565b80601f01602080910402602001604051908101604052809291908181526020018280546116eb90612670565b80156117385780601f1061170d57610100808354040283529160200191611738565b820191906000526020600020905b81548152906001019060200180831161171b57829003601f168201915b50505091835250506005820154602082015260068201546040820152600782015460ff80821615156060840152610100909104161515608082015260088201805460a09092019161178890612670565b80601f01602080910402602001604051908101604052809291908181526020018280546117b490612670565b80156118015780601f106117d657610100808354040283529160200191611801565b820191906000526020600020905b8154815290600101906020018083116117e457829003601f168201915b50505050508152602001600982015481525050905080610100015115611833578361182b81612657565b945050611866565b8060e001518015611853575060c081015115806118535750428160c00151115b15611866578461186281612657565b9550505b610140810151611876908461283a565b925050808061188490612657565b91505061154d565b5090919293565b60606006826040516118a591906127b2565b90815260408051918290036020908101832080548083028501830190935282845291908301828280156118f757602002820191906000526020600020905b8154815260200190600101908083116118e3575b50505050509050919050565b600081815260046020526040812054829082036119325760405162461bcd60e51b81526004016104a59061260a565b60008381526004602090815260408083208151610160810183528154815260018201546001600160a01b031693810193909352600281018054919284019161197990612670565b80601f01602080910402602001604051908101604052809291908181526020018280546119a590612670565b80156119f25780601f106119c7576101008083540402835291602001916119f2565b820191906000526020600020905b8154815290600101906020018083116119d557829003601f168201915b50505050508152602001600382018054611a0b90612670565b80601f0160208091040260200160405190810160405280929190818152602001828054611a3790612670565b8015611a845780601f10611a5957610100808354040283529160200191611a84565b820191906000526020600020905b815481529060010190602001808311611a6757829003601f168201915b50505050508152602001600482018054611a9d90612670565b80601f0160208091040260200160405190810160405280929190818152602001828054611ac990612670565b8015611b165780601f10611aeb57610100808354040283529160200191611b16565b820191906000526020600020905b815481529060010190602001808311611af957829003601f168201915b50505091835250506005820154602082015260068201546040820152600782015460ff80821615156060840152610100909104161515608082015260088201805460a090920191611b6690612670565b80601f0160208091040260200160405190810160405280929190818152602001828054611b9290612670565b8015611bdf5780601f10611bb457610100808354040283529160200191611bdf565b820191906000526020600020905b815481529060010190602001808311611bc257829003601f168201915b5050505050815260200160098201548152505090508060c00151600014158015611c0d5750428160c0015111155b949350505050565b6001600160a01b0381166000908152600560209081526040918290208054835181840281018401909452808452606093928301828280156118f757602002820191906000526020600020908154815260200190600101908083116118e35750505050509050919050565b60015460ff1615611cc55760405162461bcd60e51b815260206004820152601060248201526f14185d5cd8589b194e881c185d5cd95960821b60448201526064016104a5565b565b6002805403611d185760405162461bcd60e51b815260206004820152601f60248201527f5265656e7472616e637947756172643a207265656e7472616e742063616c6c0060448201526064016104a5565b60028055565b610a3d8133611e9e565b611d328282610c59565b610a19576000828152602081815260408083206001600160a01b03851684529091529020805460ff19166001179055611d683390565b6001600160a01b0316816001600160a01b0316837f2f8788117e7eff1d82e926ec794901d17c78024a50270940304540a733656f0d60405160405180910390a45050565b611db68282610c59565b15610a19576000828152602081815260408083206001600160a01b0385168085529252808320805460ff1916905551339285917ff6391f5c32d9c69d2a47ea670b442974b53935d1edc7fd64eb21e047a839171b9190a45050565b611e19611ef7565b6001805460ff191690557f5db9ee0a495bf2e6ff9c91a7834c1ba4fdd244a5e8aa4e537bd38aeae4b073aa335b6040516001600160a01b03909116815260200160405180910390a1565b611e6b611c7f565b6001805460ff1916811790557f62e78cea01bee320cd4e420270b5ea74000d11b0c9f74754ebdbfc544b05a25833611e46565b611ea88282610c59565b610a1957611eb581611f40565b611ec0836020611f52565b604051602001611ed192919061284d565b60408051601f198184030181529082905262461bcd60e51b82526104a591600401612827565b60015460ff16611cc55760405162461bcd60e51b815260206004820152601460248201527314185d5cd8589b194e881b9bdd081c185d5cd95960621b60448201526064016104a5565b60606104706001600160a01b03831660145b60606000611f618360026128c2565b611f6c90600261283a565b67ffffffffffffffff811115611f8457611f84612196565b6040519080825280601f01601f191660200182016040528015611fae576020820181803683370190505b509050600360fc1b81600081518110611fc957611fc9612811565b60200101906001600160f81b031916908160001a905350600f60fb1b81600181518110611ff857611ff8612811565b60200101906001600160f81b031916908160001a905350600061201c8460026128c2565b61202790600161283a565b90505b600181111561209f576f181899199a1a9b1b9c1cb0b131b232b360811b85600f166010811061205b5761205b612811565b1a60f81b82828151811061207157612071612811565b60200101906001600160f81b031916908160001a90535060049490941c93612098816128d9565b905061202a565b5083156120ee5760405162461bcd60e51b815260206004820181905260248201527f537472696e67733a20686578206c656e67746820696e73756666696369656e7460448201526064016104a5565b9392505050565b60006020828403121561210757600080fd5b81356001600160e01b0319811681146120ee57600080fd5b60006020828403121561213157600080fd5b5035919050565b80356001600160a01b038116811461126d57600080fd5b60006020828403121561216157600080fd5b6120ee82612138565b6000806040838503121561217d57600080fd5b8235915061218d60208401612138565b90509250929050565b634e487b7160e01b600052604160045260246000fd5b604051601f8201601f1916810167ffffffffffffffff811182821017156121d5576121d5612196565b604052919050565b600082601f8301126121ee57600080fd5b813567ffffffffffffffff81111561220857612208612196565b61221b601f8201601f19166020016121ac565b81815284602083860101111561223057600080fd5b816020850160208301376000918101602001919091529392505050565b600080600080600060a0868803121561226557600080fd5b853567ffffffffffffffff8082111561227d57600080fd5b61228989838a016121dd565b9650602088013591508082111561229f57600080fd5b6122ab89838a016121dd565b955060408801359150808211156122c157600080fd5b506122ce888289016121dd565b9598949750949560608101359550608001359392505050565b6020808252825182820181905260009190848201906040850190845b818110156123285783516001600160a01b031683529284019291840191600101612303565b50909695505050505050565b60005b8381101561234f578181015183820152602001612337565b50506000910152565b60008151808452612370816020860160208601612334565b601f01601f19169290920160200192915050565b6020815281516020820152600060208301516123ab60408401826001600160a01b03169052565b5060408301516101608060608501526123c8610180850183612358565b91506060850151601f19808685030160808701526123e68483612358565b935060808701519150808685030160a08701526124038483612358565b935060a087015160c087015260c087015160e087015260e087015191506101006124308188018415159052565b87015191506101206124458782018415159052565b808801519250506101408187860301818801526124628584612358565b970151959092019490945250929392505050565b6000602080838503121561248957600080fd5b823567ffffffffffffffff808211156124a157600080fd5b818501915085601f8301126124b557600080fd5b8135818111156124c7576124c7612196565b8060051b91506124d88483016121ac565b81815291830184019184810190888411156124f257600080fd5b938501935b83851015612510578435825293850193908501906124f7565b98975050505050505050565b6020808252825182820181905260009190848201906040850190845b81811015612328578351151583529284019291840191600101612538565b6000806040838503121561256957600080fd5b82359150602083013567ffffffffffffffff81111561258757600080fd5b612593858286016121dd565b9150509250929050565b6000602082840312156125af57600080fd5b813567ffffffffffffffff8111156125c657600080fd5b611c0d848285016121dd565b6020808252825182820181905260009190848201906040850190845b81811015612328578351835292840192918401916001016125ee565b6020808252601a908201527f436572746966696361746520646f6573206e6f74206578697374000000000000604082015260600190565b634e487b7160e01b600052601160045260246000fd5b60006001820161266957612669612641565b5060010190565b600181811c9082168061268457607f821691505b60208210810361059d57634e487b7160e01b600052602260045260246000fd5b601f82111561068157600081815260208120601f850160051c810160208610156126cb5750805b601f850160051c820191505b818110156126ea578281556001016126d7565b505050505050565b815167ffffffffffffffff81111561270c5761270c612196565b6127208161271a8454612670565b846126a4565b602080601f831160018114612755576000841561273d5750858301515b600019600386901b1c1916600185901b1785556126ea565b600085815260208120601f198616915b8281101561278457888601518255948401946001909101908401612765565b50858210156127a25787850151600019600388901b60f8161c191681555b5050505050600190811b01905550565b600082516127c4818460208701612334565b9190910192915050565b6060815260006127e16060830186612358565b82810360208401526127f38186612358565b905082810360408401526128078185612358565b9695505050505050565b634e487b7160e01b600052603260045260246000fd5b6020815260006120ee6020830184612358565b8082018082111561047057610470612641565b7f416363657373436f6e74726f6c3a206163636f756e7420000000000000000000815260008351612885816017850160208801612334565b7001034b99036b4b9b9b4b733903937b6329607d1b60179184019182015283516128b6816028840160208801612334565b01602801949350505050565b808202811582820484141761047057610470612641565b6000816128e8576128e8612641565b50600019019056fe114e74f6ea3bd819998f78687bfcb11b140da08e9b7d222fa9c1f1ba1f2aa122a49807205ce4d355092ef5a8a18f56e8913cf4a201fbe287825b095693c21775a2646970667358221220a3303f82ea484de3a9d8b83bd308dd31acc9ca094cb016509369e6577679709e64736f6c63430008130033",
  "linkReferences": {},
  "deployedLinkReferences": {}
}